:020000041000EA
:1000000000B5324B212058609868022188439860DF
:10001000D860186158612E4B002199600221596106
:100020000121F02299502B49196001219960352056
:1000300000F044F80222904214D00621196600F024
:1000400034F8196E01211966002018661A6600F04E
:100050002CF8196E196E196E052000F02FF8012189
:100060000842F9D1002199601B49196000215960AB
:100070001A491B48016001219960EB211966A021F2
:10008000196600F012F800219960164914480160C1
:100090000121996001BC002800D000471248134993
:1000A000086003C880F30888084703B5996A0420EC
:1000B0000142FBD001200142F8D103BD02B5186610
:1000C0001866FFF7F2FF186E186E02BD00000240BE
:1000D000000000180000070000035F00212200005C
:1000E000F4000018222000A00001001008ED00E03C
:1000F00000000000000000000000000074B24E7A12
:1001000000200420F7010010C3010010C5010010F9
:10011000C1010010C1010010C1010010C101001097
:10012000C1010010C1010010C1010010C701001081
:10013000C1010010C1010010C9010010CB01001065
:10014000CD010010CD010010CD010010CD01001037
:10015000CD010010CD010010CD010010CD01001027
:10016000CD010010CD010010CD010010CD01001017
:10017000CD010010CD010010CD010010CD01001007
:10018000CD010010CD010010CD010010CD010010F7
:10019000CD010010CD010010CD010010CD010010E7
:1001A000CD010010CD010010CD010010CD010010D7
:1001B000CD010010CD010010CD010010CD010010C7
:1001C00000BE00BE00BE00BE00BE00BEEFF3058054
:1001D000103800BEF2EB887150C9001070C90010D1
:1001E0003402001090A31AE700201F49086006C8D7
:1001F00081F3088810471D48006800282FD10DA4FE
:100200000ECC002902D000F012F8F9E71849194A7B
:10021000002000E001C19142FCD1174988471749ED
:1002200088471749884700BEFDE701C901C29A42C5
:10023000FBD3704770C90010C00000206414002078
:1002400014DD0010000004200000042014DD001064
:10025000001004200010042000000000704709482E
:1002600006F02AFF0047000008ED00E0000000D083
:100270006814002028670020115E0010FD030010A4
:10028000CD5D00105756000006005250ABB36053CE
:1002900050C2001006005250861C030260C20010BB
:1002A000060052505422A29D74C200100500525004
:1002B000DE65F46814DD0010F8B5C04610B5064CD4
:1002C0002378002B07D1054B002B02D0044800E017
:1002D00000BF0123237010BD88150020000000001E
:1002E00030AC0010044B10B5002B03D00349044878
:1002F00000E000BF10BDC046000000008C150020CB
:1003000030AC0010014B18707047C04620670020C9
:1003100070B5012800D070BD0F4B9942FBD10F4C36
:10032000EA239B00E450EB229200A3500833002202
:10033000E25410330A4AE2500A4D0B4BE0180626ED
:100340003200290007F0B8FE084BE01829000831F8
:10035000320007F0B1FEDEE7FFFF0000901A002038
:10036000441E0020B0AC0010B5340000BB340000C7
:10037000F8B506000D001700D0231B065B689B0133
:1003800009D4D0231B06802292045A61154807F035
:10039000F9FF002409E0D0231B06802292049A6111
:1003A000F4E7305D07F08AFF0134AC42F9DB0E4A16
:1003B00039000E4803F0D8FC002803D00C4807F0A1
:1003C000B1FFF8BD0B4807F0DDFF0024052CF5DC7C
:1003D000395D094807F0D6FF202007F06FFF013490
:1003E000F4E7C04630AC0010F80B0020901A002053
:1003F00064AC001040AC00105CAC001010B507F00D
:10040000CDFF1E4804F0F0FE1D221D491D4803F0DB
:10041000B5FB002803D11C4807F0B4FFFBE71B48DD
:1004200007F0B0FF174C1A49200003F0D1FC19491E
:10043000200003F0C7FC03E01048002104F0A8FEF0
:10044000104803F0CBFC0028FAD0134C2168134865
:1004500007F098FFC82123685943114BC918114B65
:10046000C822084803F0B2FB236801332360072B3E
:10047000E2DD094B00221A60DEE7C0468813000067
:10048000000C0020901A002068AC001084AC001012
:1004900005030010710300101C55002098AC0010DB
:1004A000080C0020F80B002010B502490120FFF7CE
:1004B0002FFF10BDFFFF0000D0B51C00022A26D080
:1004C000032A2DD0012A01D01F20D0BD07F020F92A
:1004D000164A174B07F0AFF806000F000022154B25
:1004E00007F08BF807F054F92060134A002300212D
:1004F00007F0C6FC07F058F902000B003000390085
:1005000007F069F807F044F960600020DDE7020FAA
:100510000C23134023608000800860600020D4E733
:1005200019608000800858600020CEE7ABAAAAAA14
:10053000AAAA204065CDCD4100CA9A3BF8B5070074
:100540000E000C4A00230068002107F099FC7C682B
:10055000002524184D41074A00233068002107F088
:100560008FFC7268002312184B4120002900801A6A
:100570009941F8BD00CA9A3B10B5041E05D003F09E
:100580000FF800232370002010BD0A20FCE70000B4
:10059000F8B504000E001500002836D00378002BB3
:1005A00036D003F091F86378002B0FD0012702F0CA
:1005B000F7FFB8230122E25403F08CF81C4B002B08
:1005C00008D06278002A05D0013BF8E702F0ECFF82
:1005D0000700ECE7002B24D0B4235B000022E2509C
:1005E0000433E6500433E55004330132E250703BEB
:1005F000FF3B2370200002F0E9F92378022BFCD1A5
:100600006368002B0FD1002504E000270A2501E0D4
:1006100000270625B8230022E254002F05D1280028
:10062000F8BD0425F6E71925F4E702F0BBFFF6E76D
:10063000A086010030B583B004000D0001AA04219A
:10064000FFF7A6FF002808D10723019A1340019362
:100650002B70F022A2589A4201D103B030BD1C3059
:10066000FBE730B583B00C00150001AA0421FFF7A9
:100670008FFF00280CD1019B802252001A40511E8E
:100680008A412A708022920013405A1E934123709F
:1006900003B030BD10B50A003E21FFF779FF10BD51
:1006A00030B583B004000D00BB23C25C931EDBB2E7
:1006B000012B04D9012A16D01F2003B030BD01AA96
:1006C0008921FFF765FF0028F7D16A468A212000BB
:1006D000FFF75EFF0028F0D12B000322009901985C
:1006E000FFF7EAFEE9E70023009301AA8B21FFF759
:1006F0004FFF0028E1D1BB23E25C2B000099019859
:10070000FFF7DAFED9E770B582B0040015000229C0
:100710000CD003290ED0012904D01F2000280DD0B1
:1007200002B070BD102611230020F7E71226132314
:100730000020F3E7142615230020EFE799B201AA61
:100740002000FFF725FF0028EAD1B1B26A46200059
:10075000FFF71EFF0028E3D1BB23E25C2B000099CA
:100760000198FFF7A9FEDBE7F0B583B007000C00A6
:100770000026002501AA21003800FFF709FF002804
:1007800005D0002812D1002E14D101300FE06B46A5
:1007900007331B785BB2002B06DB002EF1D16B1CFC
:1007A000092DEED81D00E5E70126F6E70120C0B2CD
:1007B00003B0F0BD0020FAE710B582B00C0001AA2A
:1007C0000621FFF7E5FE002805D10423019A134016
:1007D0005A1E9341237002B010BD70B5040015007D
:1007E00000286DD00378002B6CD0A021FFF7D0FE3D
:1007F000002868D12A1DA1212000FFF7C9FE00288A
:1008000061D12A000832A2212000FFF7C1FE002892
:1008100059D12A000C32A3212000FFF7B9FE00288D
:1008200051D12A001032A4212000FFF7B1FE002888
:1008300049D12A001432A5212000FFF7A9FE002883
:1008400041D12A001832A6212000FFF7A1FE00287E
:1008500039D12A001C32A7212000FFF799FE002879
:1008600031D12A002032A8212000FFF791FE002874
:1008700029D12A002432A9212000FFF789FE00286F
:1008800021D12A002832AA212000FFF781FE00286A
:1008900019D12A002C32AB212000FFF779FE002865
:1008A00011D12A003032AC212000FFF771FE002860
:1008B00009D12A003432AD212000FFF769FE02E0A1
:1008C0000A2000E0062070BD10B582B0140001AA15
:1008D0000921FFF75DFE002803D10123019A13408F
:1008E000237002B010BD000070B582B004000D008E
:1008F0000192002835D00378002B35D002F0E4FEB9
:100900006378002B0FD0012602F04AFEB8230122A3
:10091000E25402F0DFFE1D4B002B08D06278002A63
:1009200005D0013BF8E702F03FFE0600ECE7002BA4
:1009300024D00123B4225200A3500432A550043223
:1009400001A9A1500432A35004332370200002F007
:100950003DF82378022BFCD16368002B10D10025D1
:1009600004E000260A2501E000260625B82300221F
:10097000E254002E06D1280002B070BD0425F5E730
:100980001925F3E702F00EFEF5E7C046A086010048
:1009900030B583B004000D00B923C35C002B1BD11C
:1009A00001AA0421FFF7F4FD002816D10723019ABC
:1009B0009A432B401A43019204212000FFF794FF31
:1009C00000280AD1062D05D01F22F423E250043B53
:1009D000E55002E01022F8E71B2003B030BD000014
:1009E00030B583B0050012024C021443B923C35C36
:1009F000002B0FD101AA0421FFF7CAFD00280AD15C
:100A0000064A019B1A402243019204212800FFF765
:100A10006BFF00E01B2003B030BDC046FFFCFFFFB2
:100A200010B50A00B923C35C002B03D13E21FFF7A8
:100A30005BFF10BD1B20FCE710B50A003621FFF755
:100A400053FF10BD30B583B004000D00B923C35C63
:100A5000002B50D101AA8421FFF79AFD00284BD129
:100A60006A4604212000FFF793FD002844D180232B
:100A7000009A13430093022D35D00DD8002D17D0C6
:100A8000012D07D1102201990A430192402293437C
:100A9000009314E008302FE0032D07D110220199B4
:100AA0009143019140221343009308E0082023E082
:100AB0001022019991430191802293430093009A5F
:100AC00004212000FFF710FF002815D10122019B0F
:100AD0001A43019284212000FFF706FF00280BD162
:100AE000BB23E55408E01022019991430191402273
:100AF00093430093E3E71B2003B030BD10B582B0F1
:100B0000040001AA8421FFF743FD002801D002B0B0
:100B100010BD0222019B1A43019284212000FFF79D
:100B2000E3FEF4E7F0B5C64600B582B005000C0060
:100B3000CB680F2B01D88323CB6023681F2B01D8F0
:100B40002023236001AA84212800FFF721FD00282B
:100B500040D1019AD3073CD504239A43237A9B00C2
:100B60001A43019284212800FFF7BEFE002831D1EC
:100B700023680F210A001A40194205D07831280055
:100B8000FFF7B2FE002825D10F272668BE43636811
:100B90009846300007F0BAF9414607F0AEF907F081
:100BA000DDF9361A0200BA4385212800FFF79CFEC2
:100BB00000280FD10F2332009A4386212800FFF727
:100BC00093FE002806D1E26888212800FFF78CFEFA
:100BD00000E01E2002B080BCB846F0BD10B582B067
:100BE000040001AA8421FFF7D3FC002801D002B041
:100BF00010BD0822019B1A43019284212000FFF7B7
:100C000073FEF4E770B582B006000D00140001AA6F
:100C10008021FFF7BDFC002801D002B070BD00228A
:100C200080213000FFF760FE0028F6D12A008221E3
:100C30003000FFF759FE0028EFD10F2C04D90A4BE2
:100C40009C4202D9084C00E010240F2322009A4352
:100C500083213000FFF748FE0028DED1019A802171
:100C60003000FFF741FED8E7FFC99A3BF0B5D64602
:100C700000B584B08246009201930A9D0B9C0C9FA4
:100C80000D9E07E0E3076D081D436410F2077F081F
:100C900017437610002CF5DC03D180231B069D4200
:100CA000F0D203AA80215046FFF772FC00281AD127
:100CB000039A0023290021430CD03900314309D085
:100CC0002800210007F0DCF83A00330006F06EFA45
:100CD00002000B000098019912184B4103928021E9
:100CE0005046FFF701FE04B080BCBA46F0BDF8B52F
:100CF00007001E00140C1F2525401F242140490514
:100D00002C0492B20C43144322002021FFF7ECFD87
:100D1000002800D0F8BD8023DB041C43240C2404ED
:100D20003443220021213800FFF7DEFD0028F1D1F5
:100D300021213800FFF718FDECE70000F0B583B083
:100D400005001C00100C6B469E1D1F2318403378B5
:100D50001F27BB43034333706B46DF793020874343
:100D6000DF7111380840400131881C4F3940014380
:100D70003180D9790C208143D97101A90A80D979B0
:100D80007F220A40DA71019A20212800FFF7ACFD8A
:100D9000002801D003B0F0BD6B46DA790C210A437C
:100DA000DA7101AA00211180D9797F220A40DA7113
:100DB000019A21212800FFF797FD0028EAD121217F
:100DC0002800FFF7D1FC0028E4D101AE3200212138
:100DD0002800FFF7DDFB33882380DBE71FFCFFFFE4
:100DE00030B583B004000D0001AA0621FFF7D0FB47
:100DF00000280AD1002D0AD00423019A134301933D
:100E0000019A06212000FFF76FFD03B030BD0423D7
:100E1000019A9A430192F3E770B504000D0000288F
:100E200013D00378002B12D00F2912D8490089B2B1
:100E3000503189B20022FFF757FD002804D101226A
:100E4000AA40238F9343238770BD0A20FCE7062026
:100E5000FAE70920F8E70000F0B5C64600B506003D
:100E60000F009046002869D00278002A68D04246D8
:100E7000002A09D002200024A04207D9358F25413D
:100E8000EA0704D50134F7E71020F4E71024844280
:100E900058D06500ADB21A043B781B021A437B7828
:100EA0001A432900503189B23000FFF71DFD002898
:100EB00002D080BCB846F0BDBA781206FB781B049D
:100EC0001A433B791B021A437B791A43290051319B
:100ED00089B23000FFF708FD0028EAD14346002B15
:100EE00027D01A7812025B781A432900703189B230
:100EF0003000FFF7F9FC0028DBD14346002B1AD065
:100F00009A781206DB781B041A4343461B791B02AE
:100F10001A4343465B791A437135A9B23000FFF793
:100F2000E3FC0028C5D10122A240338F134333874D
:100F3000BFE7054AD9E701225242EDE70A20B8E7A8
:100F40000620B6E71620B4E7FFFF000010B5040046
:100F5000901C80002150911D890061184B60002A6F
:100F600003D0042A14D0002010BD236C99071CD58F
:100F7000022293432364E26B0C212000FFF7B4FCB0
:100F80000028F1D1226C0D212000FFF7ADFCEBE72A
:100F9000BB23E35C002B0AD0E36BE022D2001342B8
:100FA00007D0054A1340E363E5E71000DCE71F20A4
:100FB000DAE70020D8E7C046FFF8FFFFF0B583B0BE
:100FC000040000250023002000E03300002D11D193
:100FD0005E1C1A4A93420CD86A4601212000FFF792
:100FE000D7FA0028F1D1164B009A9A42EDD101258B
:100FF000EBE73300002D01D0002702E0042019E0C8
:101000003300002F14D15E1C0C4A934210D801AA61
:1010100008212000FFF7BCFA0028F1D1019B5B06F4
:10102000EED5402208212000FFF75EFC2F00E7E705
:10103000002F01D003B0F0BD1A20FBE7A76100002C
:1010400091BC830230B583B0050001AA0421FFF7EB
:101050009FFA041E02D0200003B030BD802212028D
:10106000019B1A43019204212800FFF73DFC041E56
:10107000F1D102F097FAB9230122EA54EBE700001C
:1010800030B583B0040001256D42C563314AC263A7
:101090000C21FFF729FC25642F4A22640D21200032
:1010A000FFF722FC002801D003B030BD21002B48FF
:1010B00002F07CFAC0B20028F6D101AA0821200073
:1010C000FFF766FA0028EFD101AA09212000FFF7F7
:1010D0005FFA0028E8D1BA23E35C002B04D002F0C9
:1010E00046FAC0B20028DFD101AA04212000FFF790
:1010F0004FFA0028D8D1BA23E35C002B20D08023FC
:10110000DB01019A13430193019A04212000FFF7A8
:10111000EBFB0028C8D101AA06212000FFF738FA0E
:101120000028C1D1BA23E35C002B0ED02023019A02
:101130009A430192019A06212000FFF7D5FBB3E7FD
:10114000074B019A13400193DEE72023019A1343D2
:101150000193EFE780E7FFFFFFE2FFFF09120010B6
:10116000FFBFFFFF70B582B005000C0000283BD028
:101170000378002B3AD002F013FA00261CE001ABF2
:101180001D4A1A801D4959803C212800FFF7ACFBFD
:1011900000280AD11A4A3C212800FFF7A5FB04E0E9
:1011A000012203212800FFF79FFB00280CD0721CAE
:1011B000144B9E4208D81600002CE0D0012CEFD032
:1011C0000824200002B070BD002811D1012C11D8D4
:1011D0002800FFF7F3FE041EF3D1B9230022EA54DE
:1011E0002800FFF74DFFECE70A24EAE70624E8E7CA
:1011F0001A24E6E70824E4E71C4F0000F4C1FFFFCF
:10120000F4C10000A761000010B502F0A9F810BDFC
:1012100030B50160426000238360C36009E0D900FB
:1012200004686418002525800468A44661444D6064
:1012300001339342F3D330BDF8B507000D0016001B
:101240004A68DE239B009A420FD302F0A9F96A682C
:101250000021286806F02AFF2C683C6000232370D8
:10126000266363706360002214E0DE233C4C9B0025
:101270003C49200005F0F4FE200002F061FB08204C
:101280003BE0931C9B0000211951931D9B00E31828
:1012900059600132042AF4D90023B822A3542387C9
:1012A00000210132A154297A0132A15400210132D6
:1012B000A1540132A3500832A350043AA35008327B
:1012C000A350294B0432A3500432A35021004431CF
:1012D00020006C30CB3AFFF79BFF2500A83521009A
:1012E000803105222800FFF793FFE56721001F48A2
:1012F00002F064F9C0B2002800D0F8BD01232370C9
:10130000D7331F22E2500023BD32A3500432A35032
:101310000432A3500432A3500432A35004320621F5
:10132000A15004320A31A1502432A3541A3AA354D2
:10133000023AA3540432A3500832A350043AA350F3
:101340000832A3500432A3500432A3500F392000B6
:10135000FFF708FF0028D0D102232370CDE7C04655
:10136000F8190020C0AC0010FF7FFF7F7D33001014
:10137000020041684B1E8068D2680818801A8142BA
:1013800000D8401A181A43425841C0B270470300AF
:101390008068DB68C01A43425841C0B2704770B5DC
:1013A000040002F091F902F0FFF8050002F0F8F8ED
:1013B00002F090F920006C30FFF7E9FF002812D10D
:1013C0002378022B02D00024200070BDA16FC90039
:1013D000E36E9C466144200001F0D4FF041EF3D06C
:1013E00002F0E0F8F0E7002D01D10024ECE702F074
:1013F000D9F80024E8E78368013342689A4200D8AC
:101400009B1A8360704770B504000D00002828D037
:101410000378002B27D04B683F2B26D90600A8362F
:101420003000FFF7A5FF002821D1A821B022A35842
:10143000DB00605884466344002018806358A2583B
:10144000D2009B185D603000FFF7D5FF2378022B98
:1014500001D000200AE005332370200001F0B6FA25
:1014600004E00A2002E0062000E0092070BD1220FE
:10147000FCE70000F0B583B004000E1C1500002846
:101480004AD00378002B49D0002A49D0936819002C
:101490003C392A4A914245D8BA22825C002A05D0BA
:1014A0006A68934240D8D31A032B3FD927006C3780
:1014B0003800FFF75DFF00283AD1636FDB00E26E72
:1014C000D652BA23E35C002B15D1636FDB00E26ECA
:1014D000944663445D603800FFF78DFF00252000CF
:1014E0006C30FFF754FF002802D12378022B21D063
:1014F000280003B0F0BDA968286802F03BF801900D
:101500002868AB689C466044042201A906F0D4FD1B
:10151000AB680433AB60D8E70A25E0E70625DEE7D1
:101520000825DCE70925DAE70925D8E70925D6E704
:101530001225D4E72000FFF732FFD9E7B2050000FB
:10154000C368013342689A4200D89B1AC36070474F
:1015500010B50023002202E0845C634001328A421D
:10156000FAD30021002004E001221A4050405B0819
:1015700001310729F8D90123184010BD10B52823DF
:101580000122C2544369002B03D0C069002200210C
:10159000984710BD10B5041E05D002F001F80023D5
:1015A0002371002010BD0A20FCE7F8B504000E00EE
:1015B000170001F0F9FF050001F0F2FFE368207861
:1015C0003A0031009847002804D10024002D03D1AF
:1015D0002000F8BD0224F9E701F0E4FFF8E700007D
:1015E00010B50A000149FFF7E0FF10BD05801F009C
:1015F00010B5002904D001220249FFF7D6FF10BD23
:101600000022F9E701801F0010B50A000149FFF729
:10161000CCFF10BD26801F0010B50A000149FFF75E
:10162000C4FF10BD25801F0010B50A000149FFF757
:10163000BCFF10BD21801F0070B505000C000A0C16
:101640000549FFF7B2FF002800D070BDA2B20349E0
:101650002800FFF7AAFFF8E727801F0028801F0057
:1016600010B50A000149FFF7A0FF10BD22801F003E
:10167000F8B505000F0014001E00FF2A18D8FF2B34
:1016800018D8002903D00020002F08D0F8BD12027E
:1016900092B29BB21A430849FFF787FFF4E7220290
:1016A00092B2B6B2324305492800FFF77EFFEDE75C
:1016B0000820EBE70820E9E7808C1E00818C1E00E3
:1016C00070B505000C00002A01D0002070BD013269
:1016D0005149FFF76AFF0028F8D10A2C00D194E0A5
:1016E0004E4A4F492800FFF760FF0028EED1002244
:1016F0004C492800FFF759FF0028E7D1F9224A4951
:101700002800FFF752FF0028E0D10B2247492800AC
:10171000FFF74BFF0028D9D1032245492800FFF7E6
:1017200044FF0028D2D1082242492800FFF73DFF9C
:101730000028CBD1802292013F492800FFF735FFD6
:101740000028C3D108223D492800FFF72EFF0028BA
:10175000BCD18022D2003A492800FFF726FF00289A
:10176000B4D18022920137492800FFF71EFF0028DC
:10177000ACD1082234492800FFF717FF0028A5D173
:101780008022D20031492800FFF70FFF00289DD1A9
:101790008022D2002E492800FFF707FF002895D1AC
:1017A0008022D2002B492800FFF7FFFE002800D03E
:1017B0008CE78022D20028492800FFF7F6FE002897
:1017C00000D083E78022D20024492800FFF7EDFEF5
:1017D000002800D07AE78022D20021492800FFF7B4
:1017E000E4FE002800D071E70A2C00D06EE7012249
:1017F0001C492800FFF7D9FE002800D066E7012227
:1018000019492800FFF7D1FE60E7012204492800AA
:10181000FFF7CBFE69E7C046818C1E00363600001C
:10182000808C1E001F881E0054810100408C1E0009
:1018300008800100098001006781010068810100C2
:101840006B810100BD810100BE810100C2810100E8
:10185000DB810100E1810100E7810100EB810100F2
:101860004381010000A41E0007A41E0010B5282318
:10187000C35C002B05D1902252010349FFF795FE6E
:1018800010BD0B20FCE7C0460002070010B528235E
:10189000C35C002B09D1002905D0802252010449E4
:1018A000FFF783FE10BD0022F9E70B20FAE7C046E0
:1018B0000002070070B5040041618261C361074DF9
:1018C0001543AAB20649FFF770FE002800D070BD8C
:1018D0002A0C04492000FFF768FEF8E7FF3B0000F0
:1018E00020001E0021001F00F8B504000E001700A4
:1018F00001F05AFE050001F053FEA36820783A007B
:1019000031009847002804D10024002D03D1200085
:10191000F8BD0224F9E701F045FEF8E770B50500CF
:101920000C000A001C49FFF7DFFF002800D070BD43
:10193000A21C1A492800FFF7D7FF0028F7D1221D63
:1019400017492800FFF7D0FF0028F0D1A21D154944
:101950002800FFF7C9FF0028E9D122000832124908
:101960002800FFF7C1FF0028E1D122000A320F4909
:101970002800FFF7B9FF0028D9D122000C320C490A
:101980002800FFF7B1FF0028D1D122000E3209490B
:101990002800FFF7A9FFCAE70B801F000C801F007B
:1019A0000D801F000E801F000F801F0010801F0081
:1019B00011801F0013801F0010B50A000149FFF7B6
:1019C00093FF10BD08801F0030B583B004000D00E8
:1019D0006B469A1D0C49FFF787FF002801D003B022
:1019E00030BD6B469A1D13881B042B6007492000ED
:1019F000FFF77AFF0028F2D16B4606331B882A686E
:101A000013432B60EBE7C04609801F000A801F00CC
:101A100010B582B00C006B469A1D0649FFF764FFB3
:101A2000002804D16B46DA8801231340237002B0EA
:101A300010BDC04629801F0010B582B004006B465F
:101A4000591DFFF7E5FF002801D002B010BD6B461D
:101A50009A1D08492000FFF747FF0028F5D16B4683
:101A6000DA8808210A4392B2DA8002492000FFF79F
:101A70009CFDEAE721801F0010B582B00400002918
:101A80000CD00021FFF7D8FD002801D002B010BD16
:101A9000012210492000FFF788FDF7E76B469A1DE9
:101AA0000D49FFF721FF0028F0D100212000FFF7AA
:101AB000BBFD0028EAD1002206492000FFF775FD92
:101AC0000028E3D16B46DA8803492000FFF76DFD5B
:101AD000DCE7C04620801F0021801F0070B50C008D
:101AE0000A001149FFF700FF00281BD125880F4B82
:101AF0009D420ED90023A3700023E370E378062BE8
:101B000010D85A000A49525A95420BD80133E37053
:101B1000F4E7084B9D4202D90123A370ECE70223AE
:101B2000A370E9E770BDC0460B83010066070000A3
:101B30001CAD0010E105000010B582B00C00282398
:101B4000C35C002B1AD10B806B469A1D0D49FFF721
:101B5000CBFE002813D16B4606331B88DB0403D56C
:101B600023880222134323806B4606331B889B0481
:101B700005D5238804221343238000E00B2002B004
:101B800010BDC046F708010070B582B004000D001A
:101B900016006B469A1D1149FFF7A6FE002D08D1CD
:101BA0006B469A1DDB8880218B431380F1010B4328
:101BB0001380012D07D06B46DA8808492000FFF713
:101BC000F4FC02B070BD6B469A1DDB885B045B0CB5
:101BD0001380F60333431380EDE7C046828C1E006A
:101BE00070B582B006000D0014006B469A1D1449B2
:101BF000FFF77AFE002805D16B46DA88114B9A422E
:101C000002D0052002B070BD6B469A1D0E4930000F
:101C1000FFF76AFE0028F5D16B46DA88930A9B022B
:101C2000BC2109028B4209D112093F231A402A60C4
:101C30006B46DA880F2313402360E3E70520E1E7D2
:101C400002001E008302000003001E0030B583B0B6
:101C500004000D006B469A1D2649FFF745FE00283B
:101C600006D16B46DA885209012313402B7001D14B
:101C700003B030BD6B469A1D1188890801230B40C3
:101C80006B701D492000FFF72FFE0028F0D16B4636
:101C900006331B88590903220A40022A1BD006D8A2
:101CA000002A09D0012A09D10122AA7006E0032ADC
:101CB00004D10322AA7001E00022AA70DA090323EA
:101CC0001340022B12D009D8002B0CD0012BCFD1FE
:101CD0000123EB70CCE70222AA70EFE7032BC7D1F8
:101CE0000323EB70C4E70023EB70C1E70223EB7022
:101CF000BEE7C046010207000180070030B583B08F
:101D000005000C002823C35C002B39D16B469A1DBB
:101D10001D49FFF7E9FD002833D16B469A1DDB888A
:101D20001A490B401380012C24D96B46DA881649D6
:101D30002800FFF73AFC002823D16B469A1D14496E
:101D40002800FFF7D1FD00281BD16B469A1DDB88C8
:101D500010218B431380002C01D0022C03D11022C0
:101D600013436A46D3806B46DA8809492800FFF797
:101D70001CFC06E08022520113436A46D380D4E75C
:101D80000B2003B030BDC04602020700FFEFFFFF8B
:101D90000302070030B583B004000D002823C35CA4
:101DA000002B28D16B469A1D1449FFF79DFD002892
:101DB00011D16B469A1DDB8811490B4013806A1EB6
:101DC000D2B2012A09D9012D0DD06B46DA880B4910
:101DD0002000FFF7EAFB03B030BD802292011343DD
:101DE0006A46D380EFE76B469A1DD98880235B0152
:101DF0000B431380E9E70B20EDE7C0460402070020
:101E0000FFCFFFFF30B583B004000D002823C35C73
:101E1000002B21D10B706B469A1D1149FFF764FD11
:101E200000281AD16B4606331B885B0702D50123B5
:101E30002B7012E0E36A0133E3626B469A1D084996
:101E40002000FFF751FD002807D16B46DA88920881
:101E5000012313402B7000E00B2003B030BDC046BF
:101E60000102070010B582B00C002823C35C002BD0
:101E700010D16B469A1D002313800849FFF734FDEB
:101E8000002809D16B46DA885208012313402370D9
:101E900002B010BD0B20FBE70220F9E718881E00F6
:101EA000F0B583B006000F002823C35C002B1CD1C3
:101EB0008AB21049FFF779FB002817D10A246B4634
:101EC000DD1D29003000FFF7CDFF2B78BB4202D08B
:101ED000013C002CF3D1002C0ADD002F02D002239C
:101EE000337103E00323337100E00B2003B0F0BD36
:101EF0000C20FBE712881E0010B50021FFF7D0FF71
:101F000010BD10B50121FFF7CBFF10BD30B585B076
:101F100004000023037101AA02A9FFF761FE002853
:101F200003D00523237105B030BD0E236B4401227D
:101F30001A802A492000FFF738FB0028F3D18C25AE
:101F4000AD000D2169442000FFF78CFF0028EAD185
:101F50000D236B441B78002B02D1013D002DF0D1E5
:101F60001F4DA3691D43AAB21E492000FFF71DFBA8
:101F70000028D8D12A0C1C492000FFF716FB0028A6
:101F8000D1D10E226A4419492000FFF7ADFC002888
:101F9000C9D10E236B441A88154B1A421AD10E224E
:101FA0006A4414492000FFF79FFC0028BBD1282376
:101FB0000022E254019A02992000FFF781FB0028D9
:101FC0000AD101212000FFF761FC0028ABD10223D8
:101FD0002371A8E70720A6E72320A4E712881E00A4
:101FE000FF3B000020001E0021001F0010001E000B
:101FF000FF2B000011001F0010B504002823C35C54
:10200000002B0FD1002901D0222010BD012206494A
:10201000FFF7CBFA002801D00220F6E72000FFF7F7
:1020200075FFF2E70B20F0E710881E0010B5FFF7F0
:102030006DFF10BD70B582B004000D0000260429AC
:1020400065D8FFF75EFF002862D16B469A1D3149C3
:102050002000FFF749FC00285AD16B469A1DDB8807
:102060002D490B401380002D21D100222B49200047
:10207000FFF79BFA00284BD1F0210022C902200073
:10208000FFF793FA002843D1012225492000FFF7EA
:102090008CFA00283CD16B46DA881E492000FFF7F5
:1020A00084FA002834D12000FFF726FF30E0002218
:1020B0001B492000FFF779FA002829D1F0210122DD
:1020C000C9022000FFF771FA002821D1042D0DD09C
:1020D000022D16D0032D17D0012D0FD032000F493D
:1020E0002000FFF762FA0028D5D011E06B469A1D58
:1020F000D9888023DB010B431380CCE78026B6010F
:10210000ECE78026F601E9E7C026F601E6E70820BD
:1021100002B070BDF6080100FFBFFFFFF808010024
:102120000002070070B582B005000C006B469A1DD6
:102130005B49FFF7D9FB002801D002B070BD6B46A8
:102140009A1DDB8805218B43138001AA554928007D
:10215000FFF7CAFB0028F0D101AB1B885A0423D437
:102160000026514A134001AA13806B469A1C4F491E
:102170002800FFF7B9FB0028DFD16B4602331B882C
:10218000DA0700D50126012293436A465380002EC8
:102190000CD1012C0AD0022C08D0062C00D97DE0ED
:1021A000A300434AD3589F460126DAE72800FFF7E9
:1021B000A8FE0028C1D1631EDBB2012B0FD9F0218C
:1021C0000022C9022800FFF7F0F90028B5D101224A
:1021D00038492800FFF7E9F90028DED0ADE70022F2
:1021E00034492800FFF7E1F90028A6D1F0210122A7
:1021F000C9022800FFF7D9F90028CED09DE701AA2F
:1022000011888023DB010B4313806B46DA88244955
:102210002800FFF7CAF9002800D08EE701AB1A8822
:1022200020492800FFF7C1F9002800D085E76B4658
:102230005A881E492800FFF7B8F9002800D07CE72B
:10224000002E04D1012C02D0022C00D075E728000A
:10225000FFF752FE71E76B469A1C5B8801210B4326
:102260001380D2E76B469A1DDB8801210B43138054
:10227000CBE76B469A1DDB8803210B431380C4E731
:102280006B469A1DDB8804210B431380BDE76B4628
:102290009A1DDB880C210B431380B6E708204CE71E
:1022A00055801F00E6080300FFBFFFFFF60801008E
:1022B00000AD00100002070030B583B005000C002F
:1022C00000230B606B469A1D0E49FFF70DFB00289B
:1022D00001D003B030BD6B469A1D138823600A49B4
:1022E0002800FFF701FB002800D003206B460633CF
:1022F0001B881B0422681343236028230022EA540E
:10230000E7E7C04610001E0011001F00F0B583B0C3
:1023100006000C0001921F008A682F2A2CD9002188
:10232000606805F0C3FE6568356021682960002398
:102330002822AB54AF600899E9606B61AB61019BE7
:102340002B6201F02DF9237B002B0DD12800FFF724
:10235000DDFD061E0DD1237B002B0ED001F022F9EE
:1023600028230022EA5408E02900054801F01EF95C
:10237000ECE705232B7100E00826300003B0F0BD28
:102380007D15001070B500240BE0A300CB18E5000C
:102390001E6836BA46511B680435DB431BBA4351ED
:1023A00001349442F1D3002070BD30B583B00024D5
:1023B00003E0A5001BBA4351013494420AD2E50060
:1023C0004B5900934D196D680195ED43AB42F0D028
:1023D000112000E0002003B030BD000070B582B0D5
:1023E00005006846C41DC0797F2606402670F6B2F7
:1023F0004020864326703F3808404001F1B2202635
:10240000B14301432170C9B21020814321702F2AAA
:102410002FD9200021780F24A143012421430170EA
:1024200092B212021649019801400A430192013BFF
:102430007F221A4001AC51002278012632400A4323
:102440002270D3B201221343237004212000FFF72E
:102450007FF8064023780122934333432370019B86
:102460001BBA009303326946280005F025FE02B02E
:1024700070BD6946C81DC9790F24A1430170CFE71B
:10248000FF0000FFF0B583B005000C000193089E2B
:102490003368980007000837C719FE2F0ED82800A8
:1024A000FFF79CFF012C03D00020376003B0F0BD84
:1024B000281D32680199FFF765FFF6E70820F5E768
:1024C00070B584B00400002008601E0C1F252E404B
:1024D0008D781F30854335438D70104040014A8808
:1024E000194D2A4002434A800B800123B422520036
:1024F000A35004322020A0500432A1500432A35033
:10250000039326007936FF3603AB00930B00553A50
:10251000FF3A01213000FFF7B5FF051E02D0280069
:1025200004B070BD039B01335A425341DBB20B220E
:1025300022700A3A62709E229200A118039A30001B
:1025400001F038F8EBE7C0461FFCFFFFF0B585B09F
:102550000400BC23C5580433C658B3070CD587689C
:10256000002F09D0C823C25CC73B13400B226A442A
:1025700013700021C069B847EB05DB0FAA05D20F25
:1025800013436A05D20F134312D0A769002F0FD04F
:102590002B041B0E01210800184003AA10705808D4
:1025A000084050709B080B4093700331E06AB847B5
:1025B000002D01D1002E07D06369002B04D022002A
:1025C000BC320321A06A9847B4235B000122E25089
:1025D00004330732E2502300BC336932FF32A35088
:1025E00004320221A15026007936FF3622007532CE
:1025F000FF320092082201393000FFF743FF051E29
:1026000002D0280005B0F0BDBA235B00E258531C8D
:1026100059424B41DBB207212170063961709E217E
:1026200089006118300000F0C5FFEAE770B584B09A
:1026300004000B00CA780C210A43DA7000221A80C9
:10264000D9787F320A40DA70B622520021218150B7
:1026500004328350703AFF3A5431FF3142500392B2
:1026600006007936FF366832FF32815803AA00929D
:1026700021223000FFF706FF051E02D0280004B01B
:1026800070BD039B01335A425341DBB20B222270CF
:102690000A3A62709E229200A118039A300000F05C
:1026A00089FFEBE7F0B5DE4657464E464546E0B5B6
:1026B00083B004000E001500F023C35801279F408B
:1026C000002301936B46DA1DD97980235B420B43CB
:1026D00013708C235B00C35C002B2DD06B46DA1D7E
:1026E000DB7920210B431370002D2BD16B469A1DF3
:1026F0009B7920218B43137001AC23780122134373
:10270000237004212000FEF723FF012303402078DB
:102710000122904318432070019B1BBA009303329F
:102720006946300005F0C8FC002003B0F0BCBB4691
:10273000B246A946A046F0BDC06FFEF728FE0028AD
:10274000D2D0CBE720006C30FEF712FE002804D177
:10275000E823E258636F9A42C8D0E823E358DB00CD
:10276000E26E904698444346002BBFD06B469A1DBC
:102770009B7920210B431370E023E358002B00D0FA
:102780000025424652689168C91A8A468F427DD216
:10279000B9464946791A8B46301D1168C9184A4610
:1027A00005F08AFCE022A3584B44A350002D14D01E
:1027B0006B469A7910210A439A71D2B20F218A434B
:1027C0009A7143465B68197E0323194001AA890167
:1027D00010783C3303400B431370D14558D05B460F
:1027E000032B00D888E7E823E558626F954200D1B3
:1027F00082E76B469A79D30600D57DE7ED00E36E5C
:102800009C4665444B4603339A0890466A46053217
:102810001278520609D56A68926803218B43D3184F
:10282000BB4202D801239C46E04443469B004246FB
:10283000501C8000FF1A30186B681968E023994615
:10284000E3589C4661443A0005F036FC4B46E35899
:102850009C4667444B46E7506B469A1D9B79102176
:102860000B4313700F214346194013780F20834305
:102870000B4313706B681A7E03231A4001A992015F
:1028800008783C33034013430B7035E7894680E7F3
:102890006B465A1D5B7940210B4313704B46591E02
:1028A0003F23194013783F2083430B431370E822E2
:1028B000A3580133A350052B03D0E0230022E2509C
:1028C0008DE7E3330022E250F7E70000F8B5CE468B
:1028D000474680B504006C30FEF759FD002829D129
:1028E000E823E358002102E0626F9A420BD0DA003D
:1028F000E06E844662445268926889180133052B61
:10290000F2D10023F0E7E023E358C91AF023E0589E
:102910000A00C240EF3B8340013B080018401942C7
:1029200000D001201018D822A3589946834203D31F
:10293000814601E000239946DC23E3584B4500D84B
:102940004B46F422A7589F4200D31F008C235B0004
:10295000E35C002B0DD0012F0BD90127002B0FD0EA
:1029600092235B009846A044F8230022E250002600
:102970001AE0002FF2D12278092AEFD10127EDE7E2
:10298000114B9846F0E70022F82561594144200098
:10299000FFF788FEF023E258EF3B934062599446DC
:1029A0006344043363510136B74208D92378092BB5
:1029B000E9D0B14501D80022E6E70122E4E7002092
:1029C000C0BCB946B046F8BD205F0020F0B5DE4679
:1029D00057464E464546E0B591B00400F023C35833
:1029E00001259D4003950378053BDAB2062A01D9FB
:1029F00000F09DFC9300BB4AD3589F46BA235B006E
:102A0000C3580F9306007936FF36B8235B00C358CE
:102A1000B62252008258B421490041580FA80090B4
:102A20003000FFF72FFD05000F9B01335A42534141
:102A3000DBB206222270053A62709E229200A11833
:102A40000F9A300000F0B6FD280011B0F0BCBB4674
:102A5000B246A946A046F0BDBC235B00C2580B920B
:102A60000533FF33C3580A939A4207D001234360CA
:102A700000250023637002332370E5E700234360E1
:102A80006933FF33C358002B01D00025F1E77533BC
:102A9000FF33C2580D33FF33C118113BFF3BC05801
:102AA000FFF783FC0500E4E7FFF710FF051E03D1E5
:102AB000F823E258002A0AD102232370002363700E
:102AC000B833E35C002BBFD100F06CFDBCE7531CB6
:102AD00059424B41DBB208212170043961708249AF
:102AE000824800F067FDAFE704210DA8FEF730FD36
:102AF00000281CD186225200A3580133A3503E1D4A
:102B0000F823E358B34200D8C4E27719764BDB5977
:102B10000D930D9B1BBA0D930D9A8023DB059A42F2
:102B2000E2D188225200A3580133A350E7E70D9B5E
:102B30009B0005D48A225200A3580133A350DEE73C
:102B40000D9BDB0F42461A4390460D9B9B06DB0E06
:102B5000D822A3500D9BDB00DB0E0432A3500D9B4B
:102B60009B0200D426E28C235B00E35C002B00D0A8
:102B700020E2E36F9946DB68DB004A461268944620
:102B800063445B681B689A46FC23E35C002B39D1E5
:102B9000002304930D9B5B040AD50D9B1B045DD59C
:102BA000E4230022E2500132FF32A3580133A35044
:102BB0000D9BDB0200D426E2FE23E35C002B06D053
:102BC000022B04D084225200A3580133A3500D9B42
:102BD0001B02DB0F9946E06FFEF7D9FB002800D1FE
:102BE000C7E08C235B00E35C002B00D0C1E019330D
:102BF000FF330022E2540433E650243BE2582833EA
:102C0000E250D7E1FC230022E254374BF3180432A0
:102C1000049319000CA805F04FFA4A461368D268CD
:102C2000D2009B185A680C9803BAD3610422049905
:102C300008A805F041FA082108A8FEF789FCFD2341
:102C4000E35CE16F0A68C968C90052185268C31A88
:102C5000591E8B415376042304939BE70D9B9B04E1
:102C60009B0E99460D9B1B031B0F9B000D9AD202D6
:102C700001D599459CD8FE23E35C012B0BD0E423BE
:102C80000022E2500532FF32A3580133A350FE2345
:102C90000222E2548CE7E423E0584B46C318013388
:102CA000E16F0A68C968C9005218526852689342B5
:102CB0001ED902235A461A439346E06FC3689946C9
:102CC000FEF73EFCE36F1B684A46D2009B185A6829
:102CD000D368002B02D05946206B9847E42300228A
:102CE000E250D4E72CAD001050570020205F0020A8
:102CF0005044E64971184B465A1C05F0DDF9E423AF
:102D0000E3584B44E16F0A68C968C9005218526819
:102D100001339360E26F1368D268D2009B185A683F
:102D20009368043B9360BA23E35C002BC5D0E36F48
:102D30009946DB68DB004A461268944663445B6848
:102D400099685144042207A805F0B6F94B461B6860
:102D50004A46D268D2009B185B689968504600F0DA
:102D600009FC079B8342A8D001235A461A43934685
:102D7000A3E7E26F1368D268D2009B185B684A46EB
:102D80001A74E36F9A46DB68DB0052461268944679
:102D900063445B681B680493E4230022E2500D9BAC
:102DA0001B031B0F9B0099460D9B1B0600D48DE057
:102DB0000D9B5B06DB0FFD32A354BB23E35C032BAF
:102DC00034D053461B685246D268D2009B185B68C9
:102DD00000221A624B46F218AC4B92469A440422E7
:102DE00051460CA805F068F9E26F1368D268D2006A
:102DF0009B185A680C9B1BBAD3610422514608A841
:102E000005F05AF904239C46E144042108A8FEF782
:102E10009FFBFD23E35CE26F1168D268D2008A1841
:102E20005268C31A591E8B41537658E04B46F3182B
:102E3000964A9B180422059319000CA805F03CF94A
:102E400052461368D268D2009B185A680C9803BA8D
:102E500013620422059909A805F02EF94B461A1DA4
:102E6000B318191D8F4204D2FC230121E15491466D
:102E700035E0FC220021A154844A9A46924404225F
:102E800051460CA805F018F9E26F1368D268D20019
:102E90009B185A680C9B1BBAD3610422514608A8A0
:102EA00005F00AF908239C46E144190008A8FEF73A
:102EB0004FFBFD23E35CE26F1168D268D2008A18F1
:102EC0005268C31A591E8B41537608E053461B685B
:102ED0005246D268D2009B185B6800225A76039B48
:102EE000994530D10D9A9204920E0D9B1B031B0F36
:102EF0009B000D9949045AD59A4258D9D31AE16FCB
:102F00000A68C968C90052185268033B9360BA2323
:102F1000E35C002B27D1E06FC3689946FEF710FBF6
:102F2000E36F1B684A46D2009B185A68D368002B8F
:102F300002D05946206B9847E4230022E2501A330E
:102F40000232E25436E04B469919504BC9184B46B1
:102F5000EB1A99461A00049805F0AEF8E422A3583B
:102F60004B44A350BEE7E36F9946DB68DB004A465B
:102F70001268944663445B689968049B9C4661446C
:102F8000042207A805F098F84B461B684A46D26809
:102F9000D2009B185B689968049800F0EBFA079BD5
:102FA0008342B8D001235A461A439346B3E7FE231F
:102FB0000122E2543649711804220EA805F07CF86B
:102FC0000E9B1BBA0E930E9B5B0400D497E5A66F75
:102FD00020006C30FEF7B4FAF300E26ED2185168AC
:102FE0004A6A013A4A62E26E944663445A68D36878
:102FF000002B00D183E5516A002900D07FE55946B6
:10300000206B98477BE50D9B5B04D3D4FE23E35CE8
:10301000012BCFD1E333E3585919E06FC268D200D6
:103020009146026894464A46624452685268914208
:1030300017D902235A461A439346C3689946FEF7A6
:103040007FFAE36F1B684A46D2009B185A68D36820
:10305000002B02D05946206B9847E4230022E2500F
:10306000A8E753441800049A9119084BC918AB1AE1
:103070009A461A0005F020F8E422A3585344A350BE
:1030800098E7002600239B46984639E550570020D4
:10309000205F00204346002B02D10D9B9B0020D4D3
:1030A00002230F9326007936FF366F33FF33E35840
:1030B0000FAA0092082200213000FFF7E3F9050073
:1030C0000F9B01335A425341DBB20A222270093A64
:1030D00062709E229200A1180F9A300000F06AFAE6
:1030E000B2E420006C30FEF752F9002803D1D82357
:1030F000E358002B08D1E06FFEF749F9002816D1FC
:10310000DC23E358002B12D02000FFF7DFFB050083
:10311000F823E258531C59424B41DBB2082121707D
:10312000063961708649874800F044FA8CE402232E
:10313000237000236370B833E35C002B01D00025BB
:1031400082E400F02FFA00257EE400230E930E9A0D
:1031500080231B0613430E930E9A80239B05134373
:103160000E930E9B012213430E930E9949080020E3
:103170000EE00E9BDB07DB0F012216000E407340B2
:103180001A400E9B0126B3431A430E9249080130A0
:103190001E28EED90E9B1BBA0C936A4803602A1DA9
:1031A000F823E250F03B2370073B6370002364492F
:1031B00000F000FA002547E4A0239B00C118C430AA
:1031C0000222FFF7F2F80500C423E358E26B9343B1
:1031D000BC22A3500C32A258216C8A43C0216250F9
:1031E000594A0C316250043162501B0606D5574BC8
:1031F000012257492000FFF763F925E42000FFF77B
:10320000A5F921E401007931FF3104220BA804F073
:1032100053FF9F239B00E11804220AA804F04CFFEF
:103220000B9B0A9A934240D1002363606D33FF33B6
:10323000E358202B41D0B4235B00E358012B47D047
:10324000BA235B00E2580D33FF33E118B82676004D
:10325000A059FFF7AAF80500A3591A68002A5CDAFA
:10326000BC22A258120601D4FFF7EEFBD022A158CF
:103270000A0C12043748824201D0FFF7E5FBCC204C
:1032800020580604360C344FBE422CD00904090CD9
:10329000D022A1501B681B041943A150CC23E65037
:1032A0002000FFF753F9FFF7CFFB012363602000F5
:1032B000FFF74CF90025FFF7C7FB4933FF33012225
:1032C000E25023492000FFF7B1F90025FFF7BCFBCE
:1032D0006833FF330022E2501D492000FFF7A6F9B2
:1032E0000025FFF7B1FBD02162501B681B041B0CAB
:1032F0001A436250030C1B04CC2023500431615844
:103300000A401204120C13432350144B012210499B
:103310002000FFF7D5F8FFF797FBB4235B000022EE
:10332000E2500B492000FFF781F9FFF78DFB0223E4
:1033300003700023437000F035F90025FFF784FB8C
:1033400050570020205F0020FF7FFF7F10001E00ED
:10335000185500200000FF7FFF7F000011001F00B4
:1033600010B504004378002B00D010BD00F018F910
:10337000092323702000FFF729FBF6E710B5FFF7BC
:1033800025FB10BD10B507230370FFF71FFB10BD11
:1033900070B504001300054884228558044A126859
:1033A00050680A002100A84770BDC046481200209E
:1033B0002C55002070B50400130005488022855864
:1033C000044A126850680A002100A84770BDC04630
:1033D000481200202C55002030B58BB004004A68FC
:1033E000EA239B009A4232D30020A0600B6807AD0D
:1033F0000793DE22920008920A7A2A72DE22920055
:103400009446634403AA0493302305931073164B28
:103410001C6000F0D7F8154B1B68201D2200290006
:103420009847002811D101230393114B1D68114BBC
:103430000093114B220003A92000A8476368039A58
:103440005A636268D4230D49D1500BB030BDEA23D2
:103450000B4C9B000B49200003F002FE200000F003
:103460006FFA0820F1E7C0462C55002048120020D2
:10347000D012002091330010B5330010FF3B000044
:10348000F819002048AD001010B5024B9B69006888
:10349000984710BDD012002010B5024BDB68406881
:1034A000984710BD4812002010B501241C40E400CC
:1034B000012323438024E4012343034CE4699BB2AA
:1034C0004068A04710BDC0464812002010B50A0051
:1034D0000B7E03211940890101235362024B5B6A71
:1034E0004068984710BDC0464812002010B5024BF6
:1034F0009B6A4068984710BD4812002010B5030031
:10350000024804695868A04710BDC0464812002010
:1035100000280ED00368002B0DD01B79002B0CD097
:103520004368002B0BD01B78002B0AD08160002051
:1035300070470A20FCE70620FAE70620F8E7062095
:10354000F6E70620F4E7031E0CD00068002809D037
:103550000279002A07D05868002803D00278002A90
:1035600003D0986870470020FCE70020FAE70020AD
:103570007047000010B5012252420AE00178514024
:10358000FF230B409B0005495B58120A5A4001304B
:1035900021004C1E0029F1D1D04310BD8CAD00108C
:1035A00000207047002070470020704710B500F0E1
:1035B00013F910BD10B500F0A7F810BD10B500F05C
:1035C00001F910BD0020704710B5F0239B00C058D2
:1035D000FFF702FF10BD70B50600080000F0A0F96B
:1035E00000F04AF9041E0ED1012000F02FF9042C3E
:1035F0000AD8EA239B00F1183000FFF7E5FF051E0B
:1036000002D00134F3E70625280070BD10B5F02381
:103610009B00C058FFF738FF10BD10B5F0239B008A
:10362000C058FFF739FF10BD10B5F024A4000059B1
:10363000FFF73AFF10BD10B5F0239B00C058FFF70D
:1036400045FF10BD10B5F0239B00C058FFF74EFF9B
:1036500010BD10B5F0239B00C058FFF74FFF10BD01
:1036600010B5F0239B00C058FFF752FF10BD002992
:1036700005D001238340D0221206536170470123F5
:103680008340D02212069361F8E7000010B501F0E4
:103690005FFE002906DB0BD0FA229200002303F024
:1036A0009DFD10BD054B064A3F21064802F092FBE6
:1036B000FA21890003F054FDF3E7C0468CB10010F5
:1036C000A8B10010E0B10010014B00221A70704741
:1036D0001B670020014B01221A7070471B670020F6
:1036E00010B5064B18780121FFF7C1FF044B18688D
:1036F000044B1B6800220021984710BD6113002075
:10370000A4150020A8150020F8B506000F0015002C
:10371000002842D0002942D0002B01D00120F8BD62
:10372000204C2149200004F02DFE29001F4804F000
:1037300029FE1F49200004F025FE002407E0315D2A
:103740001A4804F01FFE202004F0B8FD0134AC42FA
:10375000F5D3184804F0E6FD174B1A78012393407F
:10376000D022120693612B003A003100134807F073
:103770002FFAFFF7B5FF12490A4804F003FE0024B0
:1037800004E0395D094804F0FDFD0134AC42F8D392
:10379000084804F0C7FD0020C1E70120BFE7012071
:1037A000BDE7C04658B2001044B20010FCAC001097
:1037B0005CB2001064AC00106113002000C0034034
:1037C00060B20010024B1860024B19600020704775
:1037D000A8150020A4150020024B1860024B1960A8
:1037E00000207047B0150020AC15002010B5054B27
:1037F0001B68002B04D0044A10680022002198475F
:1038000010BDC046B0150020AC15002010B5044B0B
:103810001B78002B01D1012010BDFFF7E7FFFAE76D
:103820001B67002010B5FFF731FF10BD30B583B026
:103830000500FFF7F7FF0400FFF7F4FF0190019B7D
:103840001B1BAB42F8D303B030BD000070B5094E6E
:103850003378012422009A40D0252D06AA61012048
:10386000FFF7E4FF33789C406C616420FFF7DEFFD4
:1038700070BDC0466213002070B584B001F076FAC6
:103880001F4B0293002301931E4B00931E4A0023FB
:1038900001F0B4FB0121072000F0AAFAD02424068D
:1038A000802363620121122000F0A2FA8023DB0250
:1038B00063620121142000F09BFA80235B03A36262
:1038C000124D287800F0ACFA2B7801252A009A4096
:1038D000626262610E490F4807F0C8F80E4E3078F8
:1038E00000F09EFA33782A009A4062620B4E3078DC
:1038F00000F096FA33789D406562002004B070BDF8
:10390000701500200D380010EE0200006113002039
:103910008096980000C003406013002062130020CE
:10392000014B1870002070476113002010B5010092
:10393000024804F027FD002010BDC04658B2001018
:1039400000B583B0064B1A8869468A809B788B71D4
:10395000FFF7ECFF01A8FFF7E9FF03B000BDC04689
:1039600074B2001010B50021032914D84C0064185B
:10397000E201121B9200084CA446624482180432F1
:103980001C68A24201D00131EEE74018034B9C466F
:1039900060440123037010BD901B0000A43400009C
:1039A00070B506000C001500FFF7CDFD002804D00F
:1039B0002B0022003100FFF7D5FF70BD70B5050068
:1039C0001E00194B0122C2540024032C15D8630099
:1039D0001B19DA01D21A9200F0239B009C46624424
:1039E000AA18043233689A4201D00134EDE72B194A
:1039F0000E4A9446634401221A700D4BEB58002B7B
:103A000011D0B1680E290ED930680E39821D0E30E2
:103A1000984731002800FFF715FE2D19034B9C46EF
:103A2000654400232B7070BDB4340000A83400003E
:103A3000C434000070B506000C001500FFF783FDCC
:103A4000002804D02B0022003100FFF7B7FF70BD23
:103A500010B51A78064BC254064BC358002B06D03B
:103A6000034A805C013842425041C0B2984710BDC1
:103A7000C1340000C834000070B506000C00150009
:103A8000FFF761FD002804D02B0022003100FFF772
:103A9000DFFF70BD70B50500284BC1180023002260
:103AA000FFF7C2FD002837D0002839D00024032CAE
:103AB0003CD800283AD12B19214A9A1801211170BB
:103AC000204A9446634400221A7062001219D301FE
:103AD0009B1A9B00F022920094466344EB18043337
:103AE000A1000A19D200AA18174810180360174B32
:103AF000D31817481860174B9C466244164B136046
:103B00000919C900154B9C46614469180431280005
:103B1000FFF798FD0134CAE72800FFF77EFDC3E7F1
:103B200000220F492800FFF794FDBFE7002800D0CE
:103B300070BD2800FFF76AFDFAE7C046B534000003
:103B4000A4340000A834000064330000683300008F
:103B5000F405000070330000353A001060330000B7
:103B6000793A001010B5002905D0034B9C466044FB
:103B7000062204F0A1FA10BDB534000070B50500AE
:103B80001400002901D0FFF7EDFF21002800FFF706
:103B900022FD040029002800FFF762FD002C03D05D
:103BA00063425C41E0B270BD2800FFF773FF040080
:103BB000F6E7000010B50300081E04D0024A991869
:103BC000062204F079FA10BDBB340000F0B583B0D2
:103BD0000500019117001E00BC23DB009A4200DDA6
:103BE0009FE0002E00D19EE0504C03595800C318AE
:103BF000D801C01A80004E4B9C46604428180430FF
:103C00000622310004F058FA2B595800C318D80185
:103C1000C01A8000474B9C46604428180430062296
:103C2000454BE91804F048FA2B595800C018C30155
:103C30001A1A9200AA18DD246401111980240C704C
:103C40003E4CA446624400211170181A80003C4B7F
:103C50009C466044281804303A00019904F02CFA7C
:103C60003A000E320EE0314BEB585C00E318DC01F9
:103C7000E41AA4002C19A418324B9C466444002377
:103C8000237001322D2AEEDD284BE9584B005B18DA
:103C9000DC01E41AA400264B9C4664442C1904342D
:103CA0008B005818C0002818274FC7193C60274CB4
:103CB00004192260264A8218264C1460264A82186B
:103CC00000241470254A94466044254A02606A180C
:103CD00024488446624414705918C900D0239B01BB
:103CE0009C466144691804312800FFF7A4FC041EB7
:103CF0000CD00E4BE8582D181A4B9C4665440123F6
:103D00002B7063425C41E0B203B0F0BD07496B58D1
:103D10005A1C032313406B5031002800FFF74AFF61
:103D2000EFE70020F0E70020EEE7C046AC340000EB
:103D3000901B0000961B0000B5340000A11B000082
:103D40009E1B0000941B0000043400000C34000093
:103D500008340000F40500001C340000103400009A
:103D6000A1390010A4340000002925D0002A25D054
:103D700008781378984201D000207047487853782B
:103D8000984201D00020F8E788789378984201D0D3
:103D90000020F2E7C878D378984201D00020ECE701
:103DA00008791379984201D00020E6E749795379E0
:103DB000994205D00020E0E70020DEE70020DCE7A4
:103DC0000120DAE7014BC1507047C046C4340000FF
:103DD000014BC1507047C046C8340000034BC05C63
:103DE000013843425841C0B27047C046C134000058
:103DF00010B58300084A944663441C684022624020
:103E0000C02414408022520113431C60C000034BA5
:103E10009C466044416010BD04C001400040014028
:103E200010B501238340D0221206936293610521CD
:103E3000FFF7DEFF10BD0000034B1B680220184097
:103E4000431E9841C0B2704700C00640EFF3108097
:103E500072B6034B1B68002BFBD0BFF35F8F70471C
:103E60002C0100D0BFF35F8F024B00221A6080F359
:103E7000108870472C0100D0F8B506000C00150022
:103E8000FFF7E4FFE308F718F15C07222240012363
:103E900093400B4205D1DBB20B433B70FFF7E2FFCF
:103EA000F8BD2100280002F02FF8F0B583B006001D
:103EB000019114001F00FFF7C9FF00E00134BC426C
:103EC0000CD8E308F518F35C0721214001228A4051
:103ED0001A42F3D1D2B21A432A7001E0012464429B
:103EE000FFF7C0FF002C02DB200003B0F0BD019BF8
:103EF000002BF9D0089802F007F80000002307E033
:103F0000054A9A189200BFF35F8F002111600133B8
:103F10001F2BF5D97047C04640000034054A107881
:103F2000431CDBB21370172B02D9130010221A7036
:103F30007047C0466313002000B583B00100044BF6
:103F400000931F2318220348FFF7AFFF03B000BD03
:103F500078B2001074500020074B9B68103080002E
:103F60001950BFF35F8FBFF35F8F044B00211960BF
:103F700082F310887047C04600ED00E0240100D0B5
:103F800010B5091A081F0A4B9C466144094A914220
:103F900008D8C30706D440104005400D064B18430F
:103FA00080B210BD054B064AA321064801F012FF5E
:103FB000FC070000FE0F000000E0FFFF94B20010BD
:103FC00020B50010C4B2001010B5091A04394C080D
:103FD000090B08D14905490D064A11430180064BDA
:103FE0002343438010BD054B054AAB21054801F032
:103FF000F1FEC04600F0FFFF00F8FFFF20B3001005
:10400000F4B40010C4B2001001238340034A1068C6
:104010001840431E9841C0B27047C04600E100E01E
:10402000002904D0034B1860034B18607047034B02
:104030001860FBE780E200E000E100E080E100E0E2
:1040400010B5012383401800FFF7EAFF10BD000000
:1040500001238340014A13607047C04600E200E03C
:10406000024B9B6810308000C058704700ED00E0A4
:1040700010B5FFF7F5FF002805D0054BC01A2F2813
:1040800003D8012010BD0020FCE70020FAE7C0465D
:104090006413002070B504000D00EFF3108672B6B3
:1040A0000C4B1B68002BFBD0BFF35F8F2000FFF78A
:1040B000D7FF094B984201D0A84205D13200290010
:1040C0002000FFF749FF70BD044B054A86210548D3
:1040D00001F080FE240100D0CD01001030B30010AB
:1040E00054B50010C4B20010F0B5DE4657464E4637
:1040F0004546E0B589B0814601911500EFF3108A7D
:1041000072B6744B1B68002BFBD0BFF35F8F724BF2
:104110000027DF57002F40DB7C00E419A4006F4824
:1041200024180622A2566C4B1A706D4B9A684B46A7
:1041300010339B00D35898461E001B1A2F2B38D9DA
:10414000684B98452FD105AE674B33807B009B466B
:10415000D8198000614B9846404402306349FFF70C
:104160000FFF7080624BB380FF23B371F571019B29
:1041700007935F44BF0047440ECE0EC701231C4384
:10418000A046524641464846FFF7E6FE09B0F0BC5D
:10419000BB46B246A946A046F0BD564B564AD7216B
:1041A000564801F017FE564B534ADE21534801F0A2
:1041B00011FEC04340440C2102F0D2FF002912D16D
:1041C00001239E43B34633000026DA79AA4211D96F
:1041D0000621595600290CDB4A00521892001E0095
:1041E0003E4B9B18F1E7474B434AEA21434801F015
:1041F000F1FD1E00002E3AD005AB434A1A80813AE9
:104200005A800623F3560293002B17DA3F4805AB7A
:104210009B469880029A9A71DD71019A0792301D2F
:104220002100FFF7ADFEB080B7717B00DB199B006A
:104230002A4FFF185B4607CB07C7A2E77800C019D3
:104240008000264BC0180430321DB388D90A1C29BF
:1042500007D15B055915023149005118FFF790FE4F
:10426000D5E72B4B2B4AB121244801F0B3FD05AE15
:104270001D4B33807B000293D8198000174A90466B
:10428000020042440392901C1849FFF779FE7080A7
:10429000039A101D5946FFF773FEB0801E4B5A4615
:1042A0004146521A524153431B0DB371F571019AA5
:1042B0000792029B9C466744BF0047440ECE0EC740
:1042C000114B5A461380813B538001231C43A04667
:1042D00057E7C046240100D01E6700206413002069
:1042E00000ED00E0CD01001000A1FFFF94130020BD
:1042F00001BDFFFF68B300103CB50010C4B2001050
:1043000090B30010B8B300100148000001BD0000D8
:104310002CB400102CB50010AAAA0000F0B5CE46AF
:10432000474680B583B006000D00EFF3108872B6E3
:10433000564B1B68002BFBD0BFF35F8F544B9A6822
:1043400034001034A300D758524B9F4207D0AF42DD
:1043500000D198E00197504BFB1A2F2B09D9424608
:1043600039003000FFF7F8FD03B0C0BCB946B046D5
:10437000F0BD3000FFF748FE814600213000FFF716
:104380005FFEBFF35F8FEFF30581002901D08C4200
:1043900011D10123019C9C430022A368AB4212D09F
:1043A0000622A256002A0DDB53009B189B00220018
:1043B000394CE418F1E73621384B394AFF31394896
:1043C00001F008FD2200AB4256D106256557002DAD
:1043D00038DB6B005B199A002F4B9B189A68A26020
:1043E000DA79E27106229A56A2719B795BB2002BB0
:1043F0000FDA2D48A0806B005B199B00264AD3186A
:104400002A4A11789971157049463000FFF718FE55
:10441000A5E7201D6B005B199B001F4A9B181A1D06
:104420009B88D90A1C2907D15B055B15023359000B
:104430005118FFF7A5FDDDE71D4B1E4AB1211948B4
:1044400001F0C8FC002912D1002A0ED0FF2393717D
:10445000194B9380154A1378A371184B0E49641AAF
:10446000644163431B0D1370CEE70A4FF2E7201D32
:104470001349FFF7A9FDC7E76A21124B084AFF312C
:10448000084801F0A7FC034F69E7C046240100D0AB
:1044900000ED00E0CD0100106413002044B40010D2
:1044A0000CB50010C4B2001001BD00001E67002052
:1044B0002CB400102CB5001001BDFFFFAAAA00000B
:1044C0009E13002078B4001070B5012101432E4BDB
:1044D000CB1A2F2B28D8EFF30583002B2BD0EFF32B
:1044E000108C72B6294A1268002AFBD0BFF35F8F86
:1044F000274A0400244D641B64416243120D54B2E8
:10450000244A92689B00D2588A421BD00022032A78
:1045100032D853009B189B001B49CB189B795BB288
:10452000A3421FD00132F2E7C7211B4B1B4A4900AF
:104530001B4801F04FFC92211A4B184AFF311848D2
:1045400001F048FC134A92681749D150174B1A786A
:1045500082711C70BFF35F8F0C4B00221A608CF3CA
:10456000108870BD0D005300991889006918FF2646
:104570008E710F4A8A80E9E7D1210E4B074A490024
:10458000074801F027FCC04664130020240100D036
:10459000AAAA000000ED00E080B40010D8B400101A
:1045A000C4B20010A8B40010CD0100101E67002096
:1045B00001BDFFFFB4B400100022044B02E0044927
:1045C00002C30132072AFAD97047C04600E400E06E
:1045D0008080808000B583B00100064B00930523E6
:1045E00000220548FFF761FC002801DB1F23181A91
:1045F00003B000BDBCB4001024670020024B9C46F1
:1046000061448900016070474000003410B5040027
:10461000FFF784FC01002000FFF7F0FFFF23237168
:10462000BFF35F8F10BD10B50400FFF777FC0100EA
:104630002000FFF7E3FFFF23237100236371BFF323
:104640005F8F10BD034B9C46614489000160BFF33E
:104650005F8F70474000003410B504000120FFF761
:104660006BFC01002000FFF7EDFF10BD10B50C0042
:10467000CB68834207D108000B699847002809D00E
:104680002068616810BD5221054B064AFF3106487B
:1046900001F0A0FB0023E36000200021F2E7C04608
:1046A00054B60010F0B8001068B6001070B50500E0
:1046B0000C00080000F028FF0949200000F068FE07
:1046C000FFF72CFC074B9C466044800068602C750B
:1046D000D0231B061B786B75A400034BE55070BDFF
:1046E000F149001040000034305500200A4B1A6890
:1046F000EFF3108172B61368002BFCD0BFF35F8F0D
:10470000054B1B68BFF35F8F00221A6081F310888E
:1047100040BF0020002170474C57002010B50029F1
:1047200022D003681B7B99421ED8174B9C466144DC
:10473000090183689C4661440C684968002A19D0C5
:1047400003681B7B9A4215D883680F4884466244ED
:1047500012019A1810685368020001208B4201D898
:104760000ED00020C0B210BD084B094A3C210948B8
:1047700001F030FB054B064A3C21064801F02AFBBC
:10478000A242EFD8EDE7C046FFFFFF0FBCB6001016
:1047900058B9001068B6001010B500291ED0037B70
:1047A00099421BD84B005B18033B0468A446634442
:1047B000002919D0002A1DD0914221D0002A25D0ED
:1047C000047BA24222D804685000801803382018C5
:1047D0008170197800291FD11A7010BD104B114A31
:1047E0006821114801F0F6FA104B114A6F310E485A
:1047F00001F0F0FA0F4B0E4A70210B4801F0EAFA73
:104800000D4B0B4A7121084801F0E4FA044B054AAC
:104810006821054801F0DEFA41701A70DDE7C046F4
:10482000E0B60010C4B90010FCB6001064B7001068
:10483000A0B9001070B700107CB7001070B506006A
:104840000D001400002914D0002A14D08068736869
:104850009847002806D0220029003000FFF79CFF6F
:10486000280007E02A0021003000FFF795FF200014
:1048700000E0100070BD0800FCE70000F0B583B058
:104880000500009201930AAB1C780BAB1F78002C3B
:1048900026D003685A7B944207D10123002B19D1FB
:1048A000002C3BD1200003B0F0BD002C0CD01A7BB3
:1048B000944209D81A6863001B19033BD3189B78EC
:1048C000002BEBD00123E9E73E4B3F4A68213F48EC
:1048D00001F080FA3E4B3F4A67213F4801F07AFAE7
:1048E00003689C7B002CDBD012D01A7B94420FD83B
:1048F00062001219033A19688C4662445178997320
:10490000002900D1D9730023937053701370C7E747
:104910002C4B2D4A68212D4801F05CFA002C3AD02E
:104920002B681B7B9C4236D82C4BE3181B01AA68D2
:1049300094466344009A1A60019A5A60089A9A60F1
:10494000099ADA602E68002C2BD030D0337B9C4241
:104950002DD863001B19033B326894466344002240
:104960009A705A701A70717B22003000FFF766FF50
:104970007073844200D095E7287D009A019B00F077
:104980004FFD061E01D0002F17D00C9B002B00D12D
:1049900088E71E7086E7124B124A3C210E4801F050
:1049A00019FA114B114AA521084801F013FA054BD9
:1049B000054A6821054801F00DFA2868210000F039
:1049C00067FFE2E7E0B60010C4B90010FCB60010C3
:1049D00094B70010D0B9001068B60010FFFFFF0FA9
:1049E000BCB6001058B9001064B60010B4B900107D
:1049F000F0B5DE4657464E464546E0B58BB00990C9
:104A0000002308938200B54BD658370052E0B44BD0
:104A1000B44A3F21B44801F0DDF9B44BB44A3C211B
:104A2000B44801F0D7F9002901D1002869D100214B
:104A3000404600F023FFA04219D12A686B68069215
:104A40000793AB689846EB689A464346002B14D010
:104A5000002C18D03B681B7B9C4214D8631EFA685C
:104A6000D35C08931B0218433861002015E0A24B69
:104A7000A24A8E219F4801F0ADF9A14B9F4A922195
:104A80009C4801F0A7F9994B9E4A4121994801F0B1
:104A9000A1F900239A46984600207B68BFF35F8FF8
:104AA00000221A6086F310884346002B32D100287A
:104AB00000D10CE100F04CFC02000B1EA7DB002033
:104AC0000021069007917868EFF3108672B60168AE
:104AD0000029FCD0BFF35F8F396888464C7B002CDF
:104AE000D7D09AD0097B8C4297D8874965182D0179
:104AF000B9688C46654428686968801A994100291C
:104B000091DD2A686B68099800F08AFC00239A46B8
:104B10009846C2E7089B1B0223439946514618005A
:104B2000C04705000E007A68EFF3108B72B6136869
:104B300059424B41D9B2002BF9D1BFF35F8F002E00
:104B40001EDB002E46DD3B69002B47D04B456DD167
:104B500000F0FEFB02000B1E6EDB52197341002BAE
:104B600070DB002B72DB0021049101310391029470
:104B700051460191414600913800FFF77FFE4CE01D
:104B80003B69002BDDD04B4514D1069A079B521B85
:104B9000B341002B14DB002B16DB00210491013103
:104BA0000391029451460191414600913800FFF76C
:104BB00065FE32E0554B514AA1214E4801F00AF9F9
:104BC00001225242524BE6E7454B464A3F214648B6
:104BD00001F000F9002E01D1002DB4D13B68002C6A
:104BE00050D05A7B944237D1012100294AD1DA7B37
:104BF000002A4DD19A7B002A03D1DA7B002A5AD1B0
:104C00009C73DC73002C5CD03B681B7B9C4258D8A7
:104C1000FA68013C135D0133135500233B617A6848
:104C2000BFF35F8F13608BF3108843E7374B334A32
:104C3000A421304801F0CEF8294B2A4A3F212A48C6
:104C400001F0C8F801225242314B8AE7244B254A31
:104C50003F21254801F0BEF8002C0DD01A7B94426C
:104C60000AD862001219033A18688446624492789E
:104C7000002ABAD00121B8E7264B274A68212748E5
:104C800001F0A8F8264B274AF621244801F0A2F8A3
:104C9000002A0AD0197B8A4207D851008A18033AA1
:104CA00019688C4662445470A4E71A4B1A4A68216A
:104CB0001A4801F08FF81C4B1A4AFB21174801F0E3
:104CC00089F80A4B0F4A41210A4801F083F80BB0DA
:104CD000F0BCBB46B246A946A046F0BD3055002008
:104CE0008CB1001024B90010E0B10010BCB6001067
:104CF00058B9001068B60010BCB700103CB90010DD
:104D0000D4B700107CB90010FFFFFF0FE0B7001010
:104D1000FFFFFF7FE0B60010C4B90010FCB6001022
:104D20001CB8001090B9001040B8001010B50C4B22
:104D30005B68002B04D00A210A48FFF75FFC10BD16
:104D4000074C2300084A1021206800F0A7FC03202C
:104D500000F0F2FA03212000FFF7A8FCEBE7C046C1
:104D6000AC1300204C5700201D47001010B5064B17
:104D70005B68002B01D0044810BD044B044A5E213F
:104D8000044801F027F8C046AC13002054B80010C6
:104D900064B9001068B60010F0B5DE4657464E46BE
:104DA0004546E0B58BB0804616001F00149B9A461E
:104DB000159B994616AB1B789B461F2302AA944667
:104DC000634400221A702BE0002809D04246126882
:104DD000127B904204D8421E4146C9688A5C41E079
:104DE000404B414A4121414800F0F4FF07984CE014
:104DF000361BAF41002F07DB002F11DA3C4B3D4A39
:104E00003F213D4800F0E6FF012676423B4FF3E7A5
:104E1000374B384A3F21384800F0DCFF002F4FDB8A
:104E200043465A68EFF3108472B6136859424B41F7
:104E3000D9B20791002BF8D1BFF35F8F1F3302AABD
:104E40009446634404930023039302934B460193D7
:104E50005346009332003B004046FFF70FFD031E10
:104E6000B2D1020041464968BFF35F8F00250D6053
:104E700084F31088002B29D01F2302A98C46634499
:104E80001B78002BB2D112021043002B20D05B46BE
:104E9000002B1DD04946D04704000D0003000B43F2
:104EA0001DD00029A4DB00F053FA06000F1EAFDB73
:104EB00036196F41002FB1DA012676420F4FADE768
:104EC0000B4B0C4A3F210C4800F084FF012040426C
:104ED0000BB0F0BCBB46B246A946A046F0BD079851
:104EE000F6E7C046BCB600107CB9001068B60010EA
:104EF0008CB1001024B90010E0B10010FFFFFF7F5B
:104F0000F8B50400002900D162E04268EFF3108593
:104F100072B6136858424341D8B2002BF9D1BFF39F
:104F20005F8FCBB22268567BB3421BD10120002891
:104F300048D0206988422BD0090AC9B2002B2ED054
:104F40002068007B83422AD8581EE668305C88427D
:104F50002BD000206368BFF35F8F00221A6085F3B7
:104F60001088F8BD002B0DD0167BB3420AD85E0026
:104F7000F618033E1768BC466644B678002ED6D0B5
:104F80000120D4E7134B144A6821144800F022FF93
:104F90002C21134B134AFF31134800F01BFF134B16
:104FA000134A4121104800F015FF1900100000F0CD
:104FB0006FFC0028CED199210E4B0A4A49000A48BD
:104FC00000F008FF23698B42C4D100232361C1E7AD
:104FD0000020C6E7E0B60010C4B90010FCB600100F
:104FE00078B800100CB9001068B60010BCB60010FC
:104FF0007CB900109CB80010407D7047F0B585B0BA
:105000000700100019000C9E13000B4301D1012072
:105010000021B7600A9B3361306071600B9B736144
:10502000CA1713005040040051400D00A41A9D41BE
:1050300000F08EF902000B1E12DB12196B41002BDF
:1050400014DB002B16DB0121029101960C49009123
:105050003800FFF7A1FEF060C043C00F05B0F0BDFF
:10506000084B094A3F21094800F0B4FE0122524290
:10507000074BE6E7034B044A3F21044800F0AAFE31
:105080006D4600108CB1001024B90010E0B1001082
:10509000FFFFFF7FF0B587B006000F00EFF3058339
:1050A000002B1FD106246442E517A4197D418D42CF
:1050B00002D803D1844201D900240025002D14DB3D
:1050C0000494059500F044F902000B1E13DBA41AAA
:1050D0009D41002D17DC14D03000390000F044F958
:1050E00007B0F0BD234800F00FFF234B234A3F21B8
:1050F000234800F06FFE204B204A3F21204800F05B
:1051000069FE002CE8D0FFF731FE002302930193E3
:105110001C4B0093049A059BFFF73EFE002818DA0B
:10512000DAE7002300E00023002BD5D1164B1A68E4
:10513000EFF3108172B61368002BFCD0BFF35F8FC2
:10514000114B1B68BFF35F8F00221A6081F3108838
:1051500020BF0499059A0D4B5B6A9A42E3D80B482D
:10516000806A884203D29A42DBD00123DCE7012324
:10517000DAE7C046A0B800108CB1001024B90010C6
:10518000E0B10010ED4600104C57002000400540F3
:1051900070B504000D0000F0DBF802000B1E0ADB06
:1051A000200029008018594100290ADB00290CDB66
:1051B000FFF770FF70BD084B084A3F21084800F018
:1051C00009FE012040420749F0E7034B034A3F2113
:1051D000034800F0FFFDC0468CB1001024B9001058
:1051E000E0B10010FFFFFF7F10B5FA22920000230C
:1051F000002102F045FEFFF7CBFF10BD70B584B073
:1052000005000C00EFF30583002B1ED1FFF7AEFD68
:10521000002302930193224B00932A002300FFF7FF
:10522000BBFD061E23DD20BFFFF7A0FD3100FFF709
:1052300067FE1C4B5B6A9C422DD81A4A926AAA42AE
:105240002CD29C4225D0012026E0164B5B6A994265
:1052500009D8144A926A824207D2994201D00120A9
:105260001AE0002018E0002016E0012014E00D4BA9
:105270005B6A9C4209D80B4A926AAA4207D29C42B6
:1052800001D0012008E0002006E0002004E0012019
:1052900002E0002000E0002004B070BD0120FBE728
:1052A000ED4600100040054070B5EFF30580103862
:1052B000EFF3108C72B61A4B1B68002BFBD0BFF3B8
:1052C0005F8F01221300834016494B6316490B6020
:1052D000164909780C00C440224214D0114A546A7D
:1052E0008200134D5259944206D38200114C125938
:1052F00099430E4B197007E00A4A031D9B00995809
:105300009950002200E00022BFF35F8F044B002180
:1053100019608CF31088002A00D0904770BDC046F9
:10532000280100D0004005403C7005402367002064
:10533000F86600205C4F002010B50100024A0348C7
:10534000FEF79AFD10BDC046E8B900101D670020A9
:10535000044B5B6A034A906A1900536A9942F9D177
:105360007047C04600400540084B5B6A01E0074BB0
:105370005B6A8B42FBD301E0044B5B6A8B4203D137
:10538000024B9B6A8342F7D37047C04600400540FA
:1053900070B504000D00EFF3108672B61B4B1B684E
:1053A000002BFBD0BFF35F8F002D1CD02000FEF739
:1053B00057FE174B83420BD019002000FEF76AFE00
:1053C00001212000FEF73CFE0123A340114A136097
:1053D000A400114BE550BFF35F8F0C4B00221A6005
:1053E00086F3108870BDA2000B4B0021D150012222
:1053F000A2400A490B7893430B7005492000FEF741
:105400008DFF00212000FEF71BFEE4E7280100D0FD
:10541000A9520010386005405C4F0020236700202F
:10542000F0B5DE4600B584B00400150001921E0000
:105430000293FFF78DFF03958E4202D84ED185422D
:105440004CD9EFF3108B72B6274B1B68002BFBD0A7
:10545000BFF35F8F254A17780125A540EBB23B4388
:105460001370234B5D63221D92000199D150A2005D
:105470002049029850501B6A2B4212D11C4B1B6CC6
:105480002B4208D00020BFF35F8F174B00221A6019
:105490008BF3108823E0184B184AC521184800F0F8
:1054A00099FCFFF755FF8E4214D802D1039B83422B
:1054B00010D80E4B1B78BB420ED00D4B1D625D63A6
:1054C0001F2004400123A3400E4A1360074B1F70A6
:1054D0001E38D8E70020D6E70120D4E7012004B029
:1054E00080BCBB46F0BDC046280100D02367002029
:1054F00000400540F86600200CBA001090BA001079
:1055000030BA001080E200E0EFF3108C72B60B4B63
:105510001B68002BFBD0BFF35F8F01238340084A39
:10552000136208490A789A430A70BFF35F8F034BEE
:1055300000221A608CF310887047C046280100D002
:10554000004005402367002010B500291ED0037BD2
:1055500099421BD84B005B18033B0468A446634484
:10556000002919D0002A1DD0914221D0002A25D02F
:10557000047BA24222D80468500080180338201807
:105580008170197800291FD11A7010BD104B114A73
:105590006821114800F01EFC104B114A6F310E4873
:1055A00000F018FC0F4B0E4A70210B4800F012FC63
:1055B0000D4B0B4A7121084800F00CFC044B054AC6
:1055C0006821054800F006FC41701A70DDE7C0460E
:1055D000E0B60010B4BB0010FCB6001064B70010B9
:1055E000A0BB001070B700107CB7001070B50600AB
:1055F0000D001400002914D0002A14D080687368AC
:105600009847002806D0220029003000FFF79CFFB1
:10561000280007E02A0021003000FFF795FF200056
:1056200000E0100070BD0800FCE7000010B500238A
:10563000437301338373037BC3730123027B9A4259
:1056400014D9002B0CD0027B934209D85A00D218EF
:10565000033A01688C4662440133DBB25370EDE7D4
:105660000B4B0C4A68210C4800F0B4FB002A09D00F
:10567000924207D8016853009A18033A8A18002307
:10568000537010BD024B034A6821034800F0A2FB8F
:10569000E0B60010B4BB0010FCB6001010B50173EA
:1056A00042608360FFF7C2FF10BD000070B50400C8
:1056B000081E00D170BD002934D0237B994231D817
:1056C0004B005B18033B2268944663445A78002AD7
:1056D000F0D02DD0237B9A422AD853009B18033B4D
:1056E00021688C4663445D7800215970002825D0DC
:1056F000237B984222D843001B18033B21688C4629
:1057000063440021597001002000FFF76FFF06007D
:1057100029002000FFF7CAFF020031002000FFF738
:1057200065FFC7E7084B094A6821094800F052FBAA
:10573000054B064A6821064800F04CFB024B034A21
:105740006821034800F046FBE0B60010B4BB00102F
:10575000FCB6001070B505000C00160000292FD013
:1057600034D0037B994231D84B005B18033B02686D
:10577000944663445A78002A2ED19A78002A31D16F
:105780001978FFF793FF0300002E0AD0EA7B002A66
:105790002ED1AA7B002A03D1EA7B002A3BD1AC732D
:1057A000EC73002B3DD1002C4FD02B7B9C424CD86E
:1057B0002B6861000C19033C1C190023637070BD39
:1057C000254B264A3821264800F004FB254B264A63
:1057D0006821264800F0FEFA254B204A3A2120484D
:1057E00000F0F8FA234B1D4A3B211D4800F0F2FA65
:1057F000002A0AD0297B8A4207D851008A18033A26
:1058000029688C4662445470C3E7164B164A6821D7
:10581000164800F0DFFA184B104A4221104800F0F9
:10582000D9FA002B0BD02A7B934208D843001B18CF
:10583000033B2A689446634400229A70B3E7094BFD
:10584000094A6821094800F0C5FA064B064A682152
:10585000064800F0BFFAC046ACBA00108CBB00107E
:10586000B4BA0010E0B60010B4BB0010FCB60010D3
:1058700008BB001030BB001040B8001070B5040029
:105880000A00457B2900FFF765FF6073280070BDA3
:1058900070B50400002967D0437B8B420ED00029ED
:1058A00011D0037B99420ED84B005B18033B026872
:1058B000D0188378002B0CD1002056E00121FFF78F
:1058C000DDFF012051E0294B294A6821294800F0D9
:1058D00081FA002B20D0227B93421DD85A00D31886
:1058E000033B2268D2182568EB5C8B421AD0002B50
:1058F0001BD0227B934218D85A00D318033B22684E
:10590000D21853788B4216D0002BF0D11A4B1B4A79
:105910006B211B4800F05EFA144B154A68211548AC
:1059200000F058FA4378137007E0104B104A6821D2
:10593000104800F04FFA437853700023837043708F
:1059400001222000FFF706FF0200617B814205D0A3
:105950002000FFF74BFE6073012006E0094B074A69
:105960007121074800F036FA002070BDE0B6001043
:10597000B4BB0010FCB60010B4B4001074BB00102F
:10598000B4BA001054BB0010F8B5DE4657464E4678
:105990004546E0B505000F0092460A9A934250D35F
:1059A0001A0E91461E020A9A00233000494601F061
:1059B00015FC80466C006419A400304B9C4664447E
:1059C0006368834200D260602B1FDBB29B46012BD1
:1059D0003DD9C0239B012343802212011A60AB00F2
:1059E000274A9958002907D0506901F0B9FB431C98
:1059F0005800C0180338FDD253465A0123685A4054
:105A0000E0231A4080235B0123431A605A46012A8F
:105A100028D980239B012343802212011A60434628
:105A20006360424600233000494601F0D7FBAD00D9
:105A3000134B58510120F0BCBB46B246A946A046C4
:105A4000F8BD104B104A3321104800F0C3F9012F64
:105A5000BFD1C0239B01234303221A60A368DB0745
:105A6000FCD5C9E72168794003220A401A60A26880
:105A70000123BB401342FAD0CBE7C0460080004070
:105A800078500020C0BB001034BC0010D4BB001004
:105A900030B583B00C2000F011F9FEF7CDF90028E5
:105AA0000DD0002304E099002D4A2E488850013380
:105AB000092BF8D92A4B2C4A5A6203B030BD2B4B24
:105AC00000229A6700F06CF9294B01221A60274BDB
:105AD0005B6C012BFBD1274B03221A60234B9B6B82
